:100000000C941E010C9440010C9440010C9440018E
:100010000C9440010C9440010C9440010C9440015C
:100020000C9440010C9440010C9440010C9440014C
:100030000C9440010C9440010C9440010C9440013C
:100040000C9440010C9440010C9440010C9440012C
:100050000C9440010C9440010C9440010C9440011C
:100060000C9440010C94EF060C9443070C9440014F
:100070000C9440010C9440010C9440010C944001FC
:100080000C94B81B0C9440010C9440010C9440015A
:100090000C948D070C94E1070C9440010C944001E2
:1000A0000C9440010C9440010C9440010C944001CC
:1000B0000C9440010C9440010C9440010C944001BC
:1000C0000C9440010C9440010C9440010C944001AC
:1000D0000C9440010C9440010C9440010C9440019C
:1000E0000C9440010D0A0A0A476F6F646279652E0D
:1000F0002E2E206E6F20737061636520666F7220F4
:1001000069646C65207461736B210D0A000D0A0A25
:100110004672656520486561702053697A653A20AA
:1001200025750D0A000D0A0A0A48656C6C6F205788
:100130006F726C64210D0A000D0A626C75653A20BD
:10014000737465702033210D0A000D0A626C7565A9
:100150003A20737465702032210D0A000D0A626C1A
:1001600075653A20737465702031210D0A000D0AFF
:10017000626C7565206F6666210D0A000D0A626C5F
:100180007565206F6E210D0A000D0A677265656E38
:100190003A20737465702033210D0A000D0A6772CE
:1001A00065656E3A20737465702032210D0A000D6A
:1001B0000A677265656E3A20737465702031210D8F
:1001C0000A000D0A677265656E206F6666210D0A6A
:1001D000000D0A677265656E206F6E210D0A000DB5
:1001E0000A7265643A20737465702033210D0A0029
:1001F0000D0A7265643A20737465702032210D0A0D
:10020000000D0A7265643A20737465702031210D07
:100210000A000D0A726564206F6666210D0A000DE2
:100220000A726564206F6E210D0A000080913814F7
:10023000823018F00E94BB1BF9CFFFCF11241FBEE4
:10024000CFEFD1E2DEBFCDBF00E00CBF12E0A0E0F7
:10025000B2E0EEE0FAE300E00BBF02C007900D92BF
:10026000A432B107D9F71BBE14E1A4E2B2E001C089
:100270001D92AC3CB107E1F70E9474040C94051D7B
:100280000C9400008F938FB78F93F8948091C814CB
:100290008F5F8093C8148091C9148F4F8093C914C5
:1002A0008091CA148F4F8093CA148091CB148F4FC2
:1002B0008093CB148F918FBF8F910895FC0105908F
:1002C0000020E9F7809590958E0F9F1F0895DC011F
:1002D00001C06D9341505040E0F70895AEE0B0E0AA
:1002E000E4E7F1E00C94DC1C8C0177FF02C060E0D5
:1002F00070E8615070407E836D831A83098386E0C5
:100300008C83CE010196BA01A9010E94C2012D8100
:100310003E8137FD09C0EF81F8852E173F070CF4A9
:10032000F901E00FF11F10822E96E4E00C94F81C06
:10033000AEE0B0E0EEE9F1E00C94DC1C8C0177FF5C
:1003400002C060E070E8615070407E836D831A8364
:1003500009838EE08C83CE010196BA01A9010E9427
:10036000C2012D813E8137FD09C0EF81F8852E172E
:100370003F070CF4F901E00FF11F10822E96E4E024
:100380000C94F81CABE0B0E0E8ECF1E00C94CE1C6F
:100390003C012B015A01FC0117821682838181FDE9
:1003A00003C06FEF7FEFC6C19AE0892E1E0108944B
:1003B000211C311CF3012381F20123FD859123FFD0
:1003C00081912F01882309F4B2C1853239F423FDCC
:1003D000859123FF81912F01853229F490E0B301AB
:1003E0000E94B503E7CF982FFF24EE249924FFE164
:1003F000FF15D0F09B3269F09C3228F4903259F00E
:10040000933291F40EC09D3249F0903369F441E08B
:1004100024C052E0F52A84E0F82A28C098E0F92A9E
:1004200025C0E0E1FE2A22C0F7FC29C0892F8053B5
:100430008A3070F4F6FE05C0989C902C1124980E1A
:1004400015C0E89CE02C1124E80EF0E2FF2A0EC053
:100450009E3229F4F6FC6BC140E4F42A07C09C36B6
:1004600019F450E8F52A02C0983649F4F20123FD48
:10047000959123FF91912F01992309F0B8CF892FEE
:100480008554833018F08052833038F444E050E0D3
:10049000A40EB51E5FE359830FC0933631F0933736
:1004A00079F0933509F056C020C0F5018081898329
:1004B00042E050E0A40EB51E610101E010E012C060
:1004C000F501C080D180F6FC03C06FEF7FEF02C062
:1004D000692D70E042E050E0A40EB51EC6010E94F6
:1004E000AA038C015FE7F52214C0F501C080D1801A
:1004F000F6FC03C06FEF7FEF02C0692D70E042E0B1
:1005000050E0A40EB51EC6010E949F038C0150E866
:10051000F52AF3FE07C01AC080E290E0B3010E9402
:10052000B503EA948E2D90E008171907A8F30EC0C2
:10053000F601F7FC8591F7FE81916F0190E0B30120
:100540000E94B503E110EA94015010400115110515
:1005500079F7EAC0943611F0993669F5F7FE08C0CC
:10056000F501208131814281538184E090E00AC00D
:10057000F501808191819C01442737FD4095542FDE
:1005800082E090E0A80EB91E9FE6F92257FF09C04D
:1005900050954095309521953F4F4F4F5F4FE0E884
:1005A000FE2ACA01B901A1012AE030E00E94E1035C
:1005B000D82ED21840C0953729F41F2D1F7E2AE06F
:1005C00030E01DC01F2D197F9F3661F0903720F459
:1005D000983509F0ACC00FC0903739F0983709F062
:1005E000A6C004C028E030E00AC0106114FD146009
:1005F00020E130E004C014FD166020E132E017FF76
:1006000008C0F501608171818281938144E050E0EE
:1006100008C0F50180819181BC0180E090E042E05A
:1006200050E0A40EB51EA1010E94E103D82ED218FD
:100630008FE7F82EF122F6FE0BC05EEFF522D914FB
:1006400038F4F4FE07C0F2FC05C08FEEF82202C0B9
:100650001D2D01C0192DF4FE0DC0FE01ED0DF11D83
:100660008081803319F499EEF92208C01F5FF2FEF1
:1006700005C003C08F2D867809F01F5F0F2DF3FC96
:1006800014C0F0FE0FC01E1510F09D2C0BC09D2C49
:100690009E0C911A1E2D06C080E290E0B3010E94CC
:1006A000B5031F5F1E15C0F304C01E1510F4E11A38
:1006B00001C0EE2404FF0FC080E390E0B3010E946C
:1006C000B50302FF1DC001FD03C088E790E00EC026
:1006D00088E590E00BC0802F867891F001FF02C082
:1006E0008BE201C080E2F7FC8DE290E0B3010E9452
:1006F000B50306C080E390E0B3010E94B5039A946D
:10070000D914C0F3DA94F101ED0DF11D808190E070
:10071000B3010E94B503DD20A9F706C080E290E096
:10072000B3010E94B503EA94EE20C1F743CEF30172
:1007300066817781CB012B96E2E10C94EA1CFC01E7
:100740000590615070400110D8F7809590958E0FFC
:100750009F1F0895FC016150704001900110D8F76F
:10076000809590958E0F9F1F08950F931F93CF93A1
:10077000DF938C01EB018B8181FF1BC082FF0DC0D9
:100780002E813F818C819D812817390764F4E8818F
:10079000F9810193F983E88306C0E885F985802F04
:1007A0001995892B31F48E819F8101969F838E83C9
:1007B00002C00FEF1FEFC801DF91CF911F910F9182
:1007C0000895FA01AA27283051F1203181F1E894E7
:1007D0006F936E7F6E5F7F4F8F4F9F4FAF4FB1E034
:1007E0003ED0B4E03CD0670F781F891F9A1FA11D2F
:1007F000680F791F8A1F911DA11D6A0F711D811D30
:10080000911DA11D20D009F468943F912AE0269FF4
:1008100011243019305D3193DEF6CF010895462F53
:100820004770405D4193B3E00FD0C9F7F6CF462F34
:100830004F70405D4A3318F0495D31FD405241939D
:1008400002D0A9F7EACFB4E0A6959795879577955A
:100850006795BA95C9F700976105710508959B01E1
:10086000AC010A2E06945795479537952795BA956A
:10087000C9F7620F731F841F951FA01D0895279A43
:100880002F9AFFCF892B31F48EE691E00E94660803
:10089000759808958CE791E00E946608759A08950E
:1008A000892B31F482EC91E00E94660873980895D8
:1008B00081ED91E00E946608739A0895892B51F4A6
:1008C00082E192E00E94660880910201877F809316
:1008D000020108958FE192E00E9466088091020172
:1008E0008860809302010895CDB7DEB7A097DEBF80
:1008F000CDBF6E010894C11CD11CC60160E070E040
:1009000020E032EC41E050E00FEF10E0E0E4EE2EAA
:10091000F12C0E94120CA8E8B4E1F60180E20190EB
:100920000D928150E1F785E291E00E9466088DE426
:1009300095E060E072E040E051E020E030E003E06C
:10094000EE24FF24CC24DD24AA24BB240E94D0184A
:1009500085E195E067E072E040E051E020E030E0C2
:100960000E94D0188DED94E060E172E040E051E02B
:1009700020E030E00E94D0180E94B50D00D00F9208
:100980002DE031E0EDB7FEB732832183948383837A
:100990000E942E0B0F900F900F900F900E94CC1979
:1009A00084EE90E00E94660880E090E0A0960FB68A
:1009B000F894DEBF0FBECDBF0895A2E0B0E0E3EE35
:1009C000F4E00C94DC1C1A8219826B9A80E090E0AF
:1009D0000E9442048E010F5F1F4F8CE591E00E9440
:1009E000660880E090E00E944204C80166EA70E078
:1009F0000E942A178AE491E00E94660880E090E055
:100A00000E944204C80166EA70E00E942A1788E347
:100A100091E00E94660881E090E00E944204C801D3
:100A200066EA70E00E942A17D8CFA2E0B0E0EBE1BE
:100A3000F5E00C94DC1C1A8219826B9A80E090E03D
:100A40000E9450048E010F5F1F4F8FEA91E00E94B9
:100A5000660881E090E00E945004C80166EA70E0F8
:100A60000E942A178CE991E00E94660880E090E0DD
:100A70000E945004C80166EA70E00E942A1789E8C3
:100A800091E00E94660880E090E00E945004C80156
:100A900066EA70E00E942A17D8CFA2E0B0E0E3E552
:100AA000F5E00C94DC1C1A821982809101018860A7
:100AB0008093010180E090E00E945E048E010F5F50
:100AC0001F4F81E092E00E94660880E090E00E9463
:100AD0005E04C80166EA70E00E942A1780EF91E088
:100AE0000E94660881E090E00E945E04C80166EA08
:100AF00070E00E942A178FED91E00E94660880E066
:100B000090E00E945E04C80166EA70E00E942A1725
:100B1000D8CFFC01808191810097C1F48091C00001
:100B200087FF06C08091C6008091C00087FDFACF84
:100B30000FB6F8940F921382128280859185958367
:100B40008483978386830F900FBE0895019781F762
:100B500002C08091CE008091C80087FDFACFE8CF17
:100B6000FC010FB6F8940F92228133810F900FBED3
:100B7000C9010895CF93DF93FC01DB010FB6F89410
:100B80000F92828193810F900FBE892BD9F03296FC
:100B9000EF01EC81FD8121910FB6F8940F92FD8356
:100BA000EC8388859985E817F90781F08881998118
:100BB0000197998388830F900FBE2C9381E0DF917A
:100BC000CF91089580E0DF91CF9108958E819F812C
:100BD0009D838C83EBCFCF93DF93DC010FB6F8942A
:100BE0000F921E962D913C911F970F900FBE589615
:100BF0008D919C91599728173907A9F11E96ED01FF
:100C00001E97EA81FB8160830FB6F8940F928A8168
:100C10009B8101969B838A83288539858217930758
:100C200009F43CC0888199810196998388830F904B
:100C30000FBE8D919C91009749F48091C100806214
:100C40008093C10081E0DF91CF910895019721F059
:100C500081E0DF91CF9108958091C90080628093F7
:100C6000C90081E0F6CF85E8982F9A95F1F7982F83
:100C70009A95F1F7982F9A95F1F78A95F1F70FB6B3
:100C8000F8940F921E968D919C911F970F900FBE16
:100C90002817390709F0B2CF80E0D5CF8E819F8128
:100CA0009B838A83BFCF282F8091C00085FD08C019
:100CB00095E8892F8A95F1F78091C00085FFF9CFDB
:100CC0002093C60008958091C00087FD08C095E874
:100CD000892F8A95F1F78091C00087FFF9CF809125
:100CE000C0008C7119F48091C60008958FEF0895AB
:100CF0008091C000807808958091C000807208952E
:100D0000FC010190F081E02D95E807C08091C000C2
:100D1000807261F4892F8A95F1F73097B9F3E13049
:100D2000F105C1F78091C8008072A1F3309719F4E2
:100D30006093C6000895319709F008956093CE003E
:100D40000895FC010190F081E02D95E807C08091A5
:100D5000C000807861F4892F8A95F1F73097B9F354
:100D6000E130F105C1F78091C8008078A1F3309798
:100D700031F48091C0008C7159F08FEF0895319754
:100D8000E1F78091C8008C71C1F78091CE00089581
:100D90008091C6000895FC010190F081E02D30970C
:100DA00021F48091C00080780895319711F080E09F
:100DB00008958091C80080780895FC010190F08129
:100DC000E02D309721F48091C00080720895319712
:100DD00011F080E008958091C800807208951F92FC
:100DE0000F920FB60F920BB60F9211242F933F93D1
:100DF0004F938F939F93CF93DF93EF93FF938091C4
:100E0000C0008C7159F54091C6000FB6F8940F924E
:100E100020918A1430918B140F900FBE80919414FE
:100E20009091951428173907C9F0CAE8D4E1EA81EE
:100E3000FB8140830FB6F8940F928A819B810196C3
:100E40009B838A832885398582179307B9F0888127
:100E500099810196998388830F900FBEFF91EF913E
:100E6000DF91CF919F918F914F913F912F910F9053
:100E70000BBE0F900FBE0F901F9018958E819F8113
:100E80009B838A83E4CF1F920F920FB60F920BB60B
:100E90000F9211242F938F939F93CF93DF93EF9310
:100EA000FF930FB6F8940F92809196149091971437
:100EB0000F900FBE892B31F1C6E9D4E1EC81FD81A1
:100EC00021910FB6F8940F92FD83EC838885998564
:100ED000E817F907E9F08881998101979983888358
:100EE0000F900FBE2093C600FF91EF91DF91CF913D
:100EF0009F918F912F910F900BBE0F900FBE0F906F
:100F00001F9018958091C1008F7D8093C100ECCF18
:100F10008E819F819D838C83DECF1F920F920FB6AF
:100F20000F920BB60F9211242F933F934F938F93F1
:100F30009F93CF93DF93EF93FF938091C8008C71C1
:100F400059F54091CE000FB6F8940F922091AA1453
:100F50003091AB140F900FBE8091B4149091B514E2
:100F600028173907C9F0CAEAD4E1EA81FB81408336
:100F70000FB6F8940F928A819B8101969B838A8396
:100F80002885398582179307B9F088819981019660
:100F9000998388830F900FBEFF91EF91DF91CF91DE
:100FA0009F918F914F913F912F910F900BBE0F907A
:100FB0000FBE0F901F9018958E819F819B838A830F
:100FC000E4CF1F920F920FB60F920BB60F9211241F
:100FD0002F938F939F93CF93DF93EF93FF930FB64E
:100FE000F8940F928091B6149091B7140F900FBEA1
:100FF000892B31F1C6EBD4E1EC81FD8121910FB653
:10100000F8940F92FD83EC8388859985E817F9079A
:10101000E9F0888199810197998388830F900FBEA9
:101020002093CE00FF91EF91DF91CF919F918F910F
:101030002F910F900BBE0F900FBE0F901F90189521
:101040008091C9008F7D8093C900ECCF8E819F81F4
:101050009D838C83DECF0F931F93CF93DF938C01FF
:10106000EB01CB010E945E01DC01009721F1F80148
:101070008081918140E050E035E8FE01E40FF51FEA
:101080004F5F5F4F649107C02091C000207261F4F0
:10109000232F2A95F1F70097B9F381309105C1F715
:1010A0002091C8002072A1F3009751F46093C6000C
:1010B0004A175B0710F3DF91CF911F910F910895AD
:1010C00081309105A9F76093CE00F2CFCF93DF93E3
:1010D000EC010E945E01BC010097C9F020E030E005
:1010E00045E8FE01E20FF31F2F5F3F4F54918091BF
:1010F000C00085FD07C0842F8A95F1F78091C0005C
:1011000085FFF9CF5093C6002617370750F3DF91BC
:10111000CF910895A0E0B0E0E0E9F8E00C94D81C8D
:101120008C017B01CB010E945E01DC01009709F478
:1011300051C08EE0C82ED12CC00ED11E40E050E030
:1011400075E809C08091C10080628093C1004A1790
:101150005B0708F03FC0F701E40FF51F4F5F5F4FDB
:1011600064910FB6F8940F92F801268537850F9099
:101170000FBEF801808D918D2817390781F1E601A6
:10118000EA81FB8160830FB6F8940F928A819B817C
:1011900001969B838A83288539858217930709F4F2
:1011A00037C0888199810196998388830F900FBEFB
:1011B000F80180819181009709F4C4CF019709F06B
:1011C000C6CF8091C90080628093C9004A175B072F
:1011D00008F4C1CFCDB7DEB7E8E00C94F41C872F3C
:1011E0008A95F1F7872F8A95F1F7872F8A95F1F77E
:1011F000872F8A95F1F70FB6F8940F92F80186853C
:1012000097850F900FBE2817390709F0B8CF9FCFE9
:101210008E819F819B838A83C4CFEF92FF920F932D
:101220001F93CF93DF938C010E945E01DC01009736
:1012300009F453C040E050E096E9E92E94E1F92E1C
:1012400075E809C08091C10080628093C1004A178F
:101250005B0708F042C0F801E40FF51F4F5F5F4FD6
:1012600064910FB6F8940F922091961430919714D0
:101270000F900FBE8091A0149091A11428173907E8
:1012800089F1E701EA81FB8160830FB6F8940F9240
:101290008A819B8101969B838A8328853985821761
:1012A000930709F439C088819981019699838883CD
:1012B0000F900FBE8091881490918914009709F4C3
:1012C000C1CF019709F0C3CF8091C900806280939C
:1012D000C9004A175B0708F4BECFCDB7DEB7E6E01A
:1012E0000C94F61C872F8A95F1F7872F8A95F1F7D2
:1012F000872F8A95F1F7872F8A95F1F70FB6F89423
:101300000F9280919614909197140F900FBE28170A
:10131000390709F0B6CF9BCF8E819F819B838A834B
:10132000C2CFCF93DF93EC01DB010D900020E9F7F2
:101330001197A61BB70B19F18881998140E050E005
:1013400035E8FB01E40FF51FE0814F5F5F4F07C0F9
:101350002091C000207261F4232F2A95F1F70097A5
:10136000B9F381309105C1F72091C8002072A1F333
:10137000009741F4E093C6004A175B0710F3DF9132
:10138000CF91089581309105B9F7E093CE00F4CF65
:10139000BC01DC010D900020E9F71197A81BB90BE7
:1013A000C9F020E030E045E8FB01E20FF31FE081E7
:1013B0002F5F3F4F8091C00085FD07C0842F8A9525
:1013C000F1F78091C00085FFF9CFE093C6002A179E
:1013D0003B0750F30895A0E0B0E0E1EFF9E00C9492
:1013E000D81CDC017B01EB0109900020E9F7BE016C
:1013F000615070406E197F092EE0C22ED12CC80EAC
:10140000D91E40E050E005E807C08091C10080622D
:101410008093C1004F5F5F4F4617570708F05BC0CE
:10142000F701E40FF51F10810FB6F8940F921E9686
:101430002D913C911F970F900FBE58968D919C91C6
:1014400059972817390741F1E601EA81FB8110839A
:101450000FB6F8940F928A819B8101969B838A83B1
:10146000288539858217930709F430C088819981CE
:101470000196998388830F900FBE8D919C9111974F
:10148000009709F4C2CF019709F0C4CF8091C90039
:1014900080628093C900BECF802F8A95F1F7802F9C
:1014A0008A95F1F7802F8A95F1F7802F8A95F1F7C9
:1014B0000FB6F8940F921E968D919C911F970F90E6
:1014C0000FBE2817390709F0BFCFA4CF8E819F81A7
:1014D0009B838A83CBCFCDB7DEB7E8E00C94F41CB6
:1014E000EF92FF920F931F93CF93DF938C01DC0158
:1014F0000D900020E9F71197A81BB90B40E050E0D0
:1015000036E9E32E34E1F32E75E807C08091C1007F
:1015100080628093C1004F5F5F4F4A175B0708F0FE
:101520005CC0F801E40FF51F60810FB6F8940F92CC
:1015300020919614309197140F900FBE8091A014B3
:101540009091A1142817390749F1E701EA81FB813D
:1015500060830FB6F8940F928A819B8101969B83DA
:101560008A83288539858217930709F431C08881D9
:1015700099810196998388830F900FBE809188147A
:1015800090918914009709F4C1CF019709F0C3CF56
:101590008091C90080628093C900BDCF872F8A9552
:1015A000F1F7872F8A95F1F7872F8A95F1F7872F23
:1015B0008A95F1F70FB6F8940F9280919614909156
:1015C00097140F900FBE2817390709F0BECFA3CF8D
:1015D0008E819F819B838A83CACFCDB7DEB7E6E039
:1015E0000C94F61CA0E0B0E0E8EFFAE00C94DC1CF0
:1015F00008851985FE013C96D8015E968D919C91D7
:101600005F97019741F495E8892F8A95F1F7892F23
:101610008A95F1F7F9CF81E090E0D8015F969C932D
:101620008E935E975C966D917C915D975A968D91A5
:101630009C915B974A855B859F010E949801F80108
:10164000628D738DC8010E949109D8015F961C922A
:101650001E925E972096E4E00C94F81CA0E0B0E0A7
:10166000E4E3FBE00C94DE1CFE01369641915191BF
:101670008091A6149091A714019741F495E8892FC1
:101680008A95F1F7892F8A95F1F7F9CF81E090E0FB
:101690009093A7148093A6146091A4147091A5143C
:1016A0008091A2149091A3149F010E9498018091AF
:1016B000A2149091A3140E94C8091092A71410922A
:1016C000A6142096E2E00C94FA1CA0E0B0E0EBE651
:1016D000FBE00C94DC1C08851985FE013C96D801C2
:1016E0005E968D919C915F97019741F495E8892FC3
:1016F0008A95F1F7892F8A95F1F7F9CF81E090E08B
:10170000D8015F969C938E935E975C966D917C91C9
:101710005D975A968D919C915B974A855B859F0159
:101720000E946E01F801628D738DC8010E949109BB
:10173000D8015F961C921E925E972096E4E00C946E
:10174000F81CA0E0B0E0E7EAFBE00C94DE1CFE0130
:101750003696419151918091A6149091A7140197CA
:1017600041F495E8892F8A95F1F7892F8A95F1F749
:10177000F9CF81E090E09093A7148093A614609134
:10178000A4147091A5148091A2149091A3149F01A8
:101790000E946E018091A2149091A3140E94C80926
:1017A0001092A7141092A6142096E2E00C94FA1C52
:1017B0000F931F938C01FC01828D938D0E94C00DAD
:1017C000F801808591850E94C00DF8018489958972
:1017D0000E94C00D0FB6F8940F92F801808191819C
:1017E000009779F48091C1008F7D8093C100809132
:1017F000C1008F778093C1000F900FBE1F910F9192
:1018000008950197C9F78091C9008F7D8093C90021
:101810008091C9008F778093C9000F900FBE1F91F0
:101820000F910895A0E2B0E0E8E1FCE00C94D21C36
:10183000782E692E4B0159016A01C7010E94330EAF
:101840009C010097A9F0FE0133960FB6F8940F9211
:1018500011821082828333838483358397838683C6
:101860002E0D3F1D31872087F386E2860F900FBE35
:10187000C8010E94330E9C010097A9F0FE013F961B
:101880000FB6F8940F92118210828283338384837F
:10189000358397838683200F311F318720871387F5
:1018A00002870F900FBEC8010E94330E9C018B8FE0
:1018B0003C8F9A82898218A21F8E0FB6F8940F92DD
:1018C00089819A81009709F042C0C601B501605034
:1018D000774F824C9F4F660F771F881F991F660FA7
:1018E000771F881F991FAA0CBB1CCC1CDD1CAA0CDF
:1018F000BB1CCC1CDD1CAA0CBB1CCC1CDD1CA6011B
:1019000095010E94AC1C215030403093C5002093BB
:10191000C40082E08093C00088E98093C10086E023
:101920008093C2000F900FBE1E8F0D8F872D962DB6
:101930009C01D901FE01319680E201900D92815007
:10194000E1F7872D962DA096EEE00C94EE1C019702
:1019500049F7C601B5016050774F824C9F4F660F23
:10196000771F881F991F660F771F881F991FAA0C62
:10197000BB1CCC1CDD1CAA0CBB1CCC1CDD1CAA0C8B
:10198000BB1CCC1CDD1CA60195010E94AC1C215087
:1019900030403093CD002093CC0082E08093C8008B
:1019A00088E98093C90086E08093CA00BBCFA0E09D
:1019B000B0E0EDEDFCE00C94DA1C0A851B85CE014D
:1019C0000E96F82EE92EF801868D978D019739F441
:1019D0000E94BB1BF801868D978D0197C9F381E0AA
:1019E00090E0F801978F868F648D758D828D938D31
:1019F0004C855D852F2D3E2D0E949801F801628D4A
:101A0000738DC8010E94EB09F801178E168E20967F
:101A1000E6E00C94F61CA0E0B0E0E1E1FDE00C94FF
:101A2000DA1C0A851B85CE010E96F82EE92EF801E8
:101A3000868D978D019739F40E94BB1BF801868D26
:101A4000978D0197C9F381E090E0F801978F868F19
:101A5000648D758D828D938D4C855D852F2D3E2DEA
:101A60000E946E01F801628D738DC8010E94EB091E
:101A7000F801178E168E2096E6E00C94F61CA0E076
:101A8000B0E0E5E4FDE00C94DA1CFE013A96019129
:101A90001191FE2EEF2E8091A6149091A71401971C
:101AA00041F40E94BB1B8091A6149091A71401974A
:101AB000C1F381E090E09093A7148093A614609105
:101AC000A4147091A5148091A2149091A314A8015C
:101AD0002F2D3E2D0E9498018091A2149091A31465
:101AE0000E94700A1092A7141092A6142096E6E0A5
:101AF0000C94F61CA0E0B0E0E0E8FDE00C94DA1CE9
:101B0000FE013A9601911191FE2EEF2E8091A614BE
:101B10009091A714019741F40E94BB1B8091A614D9
:101B20009091A7140197C1F381E090E09093A714DE
:101B30008093A6146091A4147091A5148091A214AE
:101B40009091A314A8012F2D3E2D0E946E0180912B
:101B5000A2149091A3140E94700A1092A7141092DC
:101B6000A6142096E6E00C94F61C80911F0290913A
:101B70002002089580911D0290911E0208950895FB
:101B80000F931F93CF93DF93009789F0EC01249775
:101B90004A815B812091240230912502C90184236E
:101BA0009523892B21F088819981892B29F0DF9158
:101BB000CF911F910F9108952095309524233523BF
:101BC0003B832A830E94310F0A811B8180911F026F
:101BD00090912002800F911F9093200280931F020A
:101BE000E8E2F4E101C0FC01808191818C179D073E
:101BF000D0F3BF019F0142815381CF01840F951F14
:101C0000C817D90749F1FE019E01EB01A881B981EE
:101C1000200F311FA217B30759F0B183A0836E17AD
:101C20007F0719F0DB01ED93FC930E944A13BFCFAD
:101C30008091260290912702A817B90771F3129696
:101C40008D919C911397800F911F938382838D9127
:101C50009C9191838083E3CFCA01800F911F93836E
:101C600082838C01D2CFA0E0B0E0E9E3FEE00C94E7
:101C7000D61CEC010E94310F809126029091270220
:101C8000892B99F04091240250912502CE018423A2
:101C90009523892BE1F1C0E0D0E00E944A13CE01E8
:101CA000CDB7DEB7EAE00C94F21C89E292E09093A3
:101CB00029148093281410922B1410922A1424E2D1
:101CC00034E13093270220932602109227141092B9
:101CD000261410922514109224148BEF91E1909306
:101CE0002C0280932B0230932A02209329028091A8
:101CF0001F029091200204979093200280931F026C
:101D000080E090E89093250280932402BBCF209737
:101D100011F2BE016C5F7F4F09F4BDCFA0901F028E
:101D2000B0902002A616B70608F4B5CF009128148B
:101D300010912914A8E2B4E106C088819981009726
:101D400041F08C01DE01E801EA81FB81E617F7072B
:101D5000A0F3E0902602F09027020E151F0509F46B
:101D60009ACFCD90DC901197E801888199818D936D
:101D70009C93CF01861B970B8930910590F1D80178
:101D8000A60FB71F13969C938E931297F801738337
:101D90006283E8E2F4E101C0FC01808191818A174D
:101DA0009B07D0F3EF019F0162817381CF01860F02
:101DB000971FA817B90799F1FD019D0162817381F1
:101DC000A881B981260F371FA217B307B9F1B183D4
:101DD000A083CE17DF0761F1F983E883E801EA8188
:101DE000FB8195012E1B3F0B3093200220931F0295
:101DF00080911D0290911E022817390720F430931C
:101E00001E0220931D02E6012496E42BF52BD80137
:101E10001396FC93EE9312971D921C923ECF12964E
:101E20008D919C911397860F971F93838283C6CFC2
:101E3000D8011296ED91FC911397D3CFEA16FB06C9
:101E400069F012968D919C911397860F971F93833B
:101E500082838D919C9191838083BBCFF182E082BC
:101E6000B8CF809133148F5F8093331408950FB6E9
:101E7000F8940F9220913014309131140F900FBECE
:101E8000C90108952091301430913114C901089589
:101E9000809135140895FC018091321480838091E3
:101EA000301490913114928381830895FC01DB01F9
:101EB0000FB6F8940F9260913014709131142D91F7
:101EC0003C9111978FEF2F3F3807F9F09091321422
:101ED00080818917F1F0418152816417750708F5F7
:101EE000CB01841B950B82179307D8F4261B370B65
:101EF000240F351F2D933C93809132148083809161
:101F00003014909131149283818380E00F900FBE42
:101F1000089541815281CB01841B950B8217930751
:101F200028F381E00F900FBE089581E080932F1475
:101F300008950097B1F0FC01A789B08D8C91853A86
:101F4000A9F420E030E040E050E02F5F3F4F4F4FDA
:101F50005F4FFD01E20FF31F8081853AB1F3822FBD
:101F60000895E0912C14F0912D14E6CF80E00895AF
:101F700020912C1430912D14C9010895E0912C1456
:101F8000F0912D1484859585A0912C14B0912D1479
:101F9000E0912C14F0912D14468924E030E0241BAC
:101FA00031091D963C932E931C9708950F931F9310
:101FB000CF93DF93EC01009731F19E8989A19817A7
:101FC00011F18E010E5F1F4FC8010E94811C29A1D3
:101FD0002E8B8C859D8597FD06C084E090E0821B4A
:101FE00091099D878C879E8980912E14891710F402
:101FF00090932E1489E0989FC0011124885C9B4E19
:10200000B8010E94301CDF91CF911F910F9108956C
:102010000F931F93CF93DF93EC01009741F13E891B
:10202000E0912C14F0912D148689381700F58C85D9
:102030009D8597FD0BC0E0912C14F0912D142689FD
:1020400084E090E0821B91099D878C8789E0389F0E
:10205000C0011124885C9B4E2A853B8528173907CF
:1020600059F0E0912C14F0912D1486898E8BDF911C
:10207000CF911F910F9108958E010E5F1F4FC801E0
:102080000E94811CE0912C14F0912D1496899E8B56
:1020900080912E14891710F490932E1489E0989F44
:1020A000C0011124885C9B4EB8010E94301CDFCF18
:1020B0000F931F93CF93DF93FC017068718360834C
:1020C000C681D7810E94811C8E010E5F1F4FC801FF
:1020D0000E94811C9E8980912E14891710F4909380
:1020E0002E1489E0989FC0011124885C9B4EB80192
:1020F0000E94301CE0912C14F0912D149E89868949
:10210000891740F481E080932F14DF91CF911F91C4
:102110000F91089580E0DF91CF911F910F91089565
:102120000F931F93CF93DF93DC011596ED91FC91F4
:10213000169706811781E8012C96CE010E94811C1A
:1021400080913314882331F5E8012296CE010E9454
:10215000811CF801968980912E14891708F189E075
:10216000989FC0011124885C9B4EBE010E94301CC8
:10217000E0912C14F0912D14D80156969C918689EB
:10218000891788F481E080932F14DF91CF911F91FC
:102190000F91089582E794E1BE010E94301CE8CFC0
:1021A00090932E14DCCF80E0DF91CF911F910F919F
:1021B0000895A0E0B0E0EFEDF0E10C94D81C809120
:1021C0003314882309F089C0809130149091311420
:1021D00001969093311480933014E0903014F09075
:1021E0003114E114F10419F520916E1430916F143B
:1021F000809170149091711490936F1480936E1469
:102200003093711420937014809132148F5F8093F7
:102210003214E0916E14F0916F148081882309F0DC
:1022200086C08FEF9FEF90932202809321028091CE
:10223000210290912202E816F90608F460C0DD241C
:1022400039E0C32EE0916E14F0916F1480818823E1
:10225000E9F1E0916E14F0916F140580F681E02DA4
:10226000C681D7818A819B81E816F90608F477C078
:102270008E010E5F1F4FC8010E94811C8C899D89B1
:10228000892B21F0CE010C960E94811C9E898091A1
:102290002E14891710F490932E149C9DC0011124C4
:1022A000885C9B4EB8010E94301CE0912C14F09188
:1022B0002D149E898689981728F2DD24D394E09105
:1022C0006E14F0916F148081882319F68FEF9FEFC1
:1022D000909322028093210213C0809134148F5F67
:1022E00080933414DD2480912F14882311F0DD2491
:1022F000D3948D2DCDB7DEB7E8E00C94F41CDD242B
:10230000E0912C14F0912D14868990E0FC01EE0FE1
:10231000FF1FEE0FFF1FEE0FFF1FE80FF91FE85C16
:10232000FB4E80818230F8F2DD24D394DCCFE09143
:102330006E14F0916F140580F681E02D0680F78110
:10234000E02D8281938190932202809321028091DB
:10235000210290912202E816F90688F270CF90933C
:10236000220280932102CCCFDF92EF92FF920F9353
:102370001F93CF93DF93EC018A859B858B57944104
:1023800041F010E0812FCDB7DEB7E7E00C94F51CEB
:1023900042C08C899D8924E18237920791F3892B71
:1023A00081F780913314882349F5DE88E0912C145D
:1023B000F0912D14068942E0E42EF12CEC0EFD1E66
:1023C000C7010E94811C6E8980912E14861710F41B
:1023D00060932E1410E0D01608F011E089E0689F99
:1023E000C0011124885C9B4EB7010E94301C812FD4
:1023F000CDB7DEB7E7E00C94F51C0DC02C9682E754
:1024000094E1BE010E94301C10E0812FCDB7DEB7F1
:10241000E7E00C94F51C0F931F93CF93DF938A0191
:10242000E0912C14F0912D14706875876487609189
:102430002C1470912D14645F7F4F0E94301C80918A
:102440002C1490912D1402960E94811C8FEF0F3F47
:10245000180709F440C0C0913014D0913114C00F56
:10246000D11FE0912C14F0912D14D383C28380915D
:10247000301490913114C817D907E0F080916E1490
:1024800090916F1460912C1470912D146E5F7F4F9A
:102490000E944F1C8091210290912202C817D907F7
:1024A00020F4D0932202C0932102DF91CF911F919B
:1024B0000F910895809170149091711460912C1473
:1024C00070912D146E5F7F4F0E944F1CDF91CF9152
:1024D0001F910F91089560912C1470912D146E5FCF
:1024E0007F4F8BE794E10E94301CDF91CF911F91C9
:1024F0000F9108950F931F93CF93DF938B016091FA
:102500002C1470912D14645F7F4F0E944F1C80919A
:102510002C1490912D1402960E94811C8FEF0F3F76
:10252000180709F440C0C0913014D0913114C00F85
:10253000D11FE0912C14F0912D14D383C28380918C
:10254000301490913114C817D907E0F080916E14BF
:1025500090916F1460912C1470912D146E5F7F4FC9
:102560000E944F1C8091210290912202C817D90726
:1025700020F4D0932202C0932102DF91CF911F91CA
:102580000F910895809170149091711460912C14A2
:1025900070912D146E5F7F4F0E944F1CDF91CF9181
:1025A0001F910F91089560912C1470912D146E5FFE
:1025B0007F4F8BE794E10E94301CDF91CF911F91F8
:1025C0000F91089580913314882309F055C010921B
:1025D0002F14E0912C14F0912D14A0912C14B09193
:1025E0002D142081318157968D919C915897821797
:1025F000930790F080912C1490912D1460912C14DD
:1026000070912D14675E7F4F0E943F0405C080913A
:102610002E14815080932E1480912E1490E0FC0192
:10262000EE0FFF1FEE0FFF1FEE0FFF1FE80FF91F4A
:10263000E85CFB4E8081882351F390912E1489E051
:10264000989FD0011124A85CBB4E1196ED91FC918E
:1026500012970280F381E02D1296FC93EE9311976E
:10266000CD010396E817F90759F086819781909379
:102670002D1480932C14089581E080932F140895D5
:102680008281938111968C93119712969C939C0151
:10269000F901EBCFA0E0B0E0E0E5F3E10C94D51C4C
:1026A0000FB6F8940F9280913314815080933314B5
:1026B00080913314882309F0EDC08091351488236C
:1026C00009F4E8C0E9E0FE2EEE24E3948091721450
:1026D000882369F1E0917714F0917814C681D7814D
:1026E000CE010C960E94811C8E010E5F1F4FC80107
:1026F0000E94811C9E8980912E14891710F490935A
:102700002E149F9DC0011124885C9B4EB8010E942D
:10271000301CE0912C14F0912D149E898689981715
:10272000A8F2E0922F1480917214882399F6809178
:102730003414882309F4AAC080913414882309F43E
:10274000A5C079E0C72EAA24AA94BA2C9924939400
:1027500080913314882309F083C0809130149091C4
:10276000311401969093311480933014E09030141A
:10277000F0903114E114F10409F520916E143091B8
:102780006F14809170149091711490936F148093D2
:102790006E143093711420937014809132148F5FF3
:1027A00080933214E0916E14F0916F14808188232D
:1027B00009F097C0B0922202A092210280912102DA
:1027C00090912202E816F90608F473C0DD24E09126
:1027D0006E14F0916F1480818823E9F1E0916E14FA
:1027E000F0916F140580F681E02DC681D7818A8132
:1027F0009B81E816F90608F485C08E010E5F1F4F15
:10280000C8010E94811C8C899D89892B21F0CE01F1
:102810000C960E94811C9E8980912E14891710F4B9
:1028200090932E149C9DC0011124885C9B4EB8018E
:102830000E94301CE0912C14F0912D149E89868901
:10284000981728F2DD24D394E0916E14F0916F1460
:102850008081882319F6B0922202A09221022AC018
:10286000809134148F5F80933414DD2480912F1471
:102870008823E1F4DD20D1F48091341481508093D9
:10288000341480913414882309F062CF80912F147E
:10289000813041F080E00F900FBECDB7DEB7EBE0A6
:1028A0000C94F11C0E94BB1B81E0F5CF90922F1479
:1028B000E3CFDD24E0912C14F0912D14868990E073
:1028C000FC01EE0FFF1FEE0FFF1FEE0FFF1FE80FC3
:1028D000F91FE85CFB4E8081823040F2DD24D39406
:1028E000C5CFE0916E14F0916F140580F681E02D54
:1028F0000680F781E02D828193819093220280935C
:1029000021025CCF9093220280932102D3CF0F93B8
:102910001F93CF93DF93EC01009789F080912C14E3
:1029200090912D14C817D90751F00FB6F8940F9253
:102930008A859B858B57944139F00F900FBEDF91AC
:10294000CF911F910F9108958C899D8924E1823741
:10295000920799F3892B89F78E010E5F1F4FC801EB
:102960000E94811C9E8980912E14891710F49093E7
:102970002E1489E0989FC0011124885C9B4EB801F9
:102980000E94301CE0912C14F0912D149E898689B0
:10299000981798F20E94BB1BD0CF0F931F93CF9331
:1029A000DF930FB6F8940F92009709F4A3C0EC01DF
:1029B0008E010E5F1F4FC8010E94811C8C899D896A
:1029C000892B21F0CE010C960E94811C8BE794E1AB
:1029D000B8010E94301C0F900FBE80912C14909172
:1029E0002D14C817D90761F180913614882391F00E
:1029F0000FB6F8940F92E0916E14F0916F148081ED
:102A0000882369F48FEF9FEF909322028093210235
:102A10000F900FBEDF91CF911F910F910895E0911C
:102A20006E14F0916F140580F681E02D0680F78119
:102A3000E02D828193819093220280932102E8CF3E
:102A400080913614882309F05EC0909135148091EE
:102A50007B14891709F45AC080913314882309F034
:102A60004EC010922F14E0912C14F0912D14A091CF
:102A70002C14B0912D142081318157968D919C9109
:102A800058978217930730F046C080912E148150DA
:102A900080932E1480912E1490E0FC01EE0FFF1F06
:102AA000EE0FFF1FEE0FFF1FE80FF91FE85CFB4E54
:102AB0008081882351F390912E1489E0989FD00152
:102AC0001124A85CBB4E1196ED91FC9112970280E7
:102AD000F381E02D1296FC93EE931197CD010396AE
:102AE000E817F90729F18681978190932D14809337
:102AF0002C1490CFC0912C14D0912D1459CF81E07B
:102B000080932F1487CF0E94BB1B84CF10922D146B
:102B100010922C147FCF80912C1490912D146091E1
:102B20002C1470912D14675E7F4F0E943F04B2CF2A
:102B30008281938111968C93119712969C939C019C
:102B4000F901D1CFA0E0B0E0E8EAF5E10C94D51CA2
:102B50009C01009741F40E94BB1BCDB7DEB7EBE0B0
:102B60000C94F11C77C1809133148F5F80933314E0
:102B7000C0913014D0913114C20FD31F80912C1406
:102B800090912D1402960E94811CE0912C14F091DA
:102B90002D14D383C2838091301490913114C817BF
:102BA000D90708F45BC080916E1490916F14609106
:102BB0002C1470912D146E5F7F4F0E944F1C8091DA
:102BC000210290912202C817D90720F4D093220243
:102BD000C09321020FB6F8940F9280913314815064
:102BE0008093331480913314882309F04DC0809171
:102BF0003514882309F448C099E0F92EEE24E394B3
:102C0000809172148823B9F1E0917714F0917814CF
:102C1000C681D781CE010C960E94811C8E010E5F69
:102C20001F4FC8010E94811C9E8980912E14891714
:102C300010F490932E149F9DC0011124885C9B4E2C
:102C4000B8010E94301CE0912C14F0912D149E8943
:102C500086899817A8F2E0922F14D2CF8091701431
:102C60009091711460912C1470912D146E5F7F4FB0
:102C70000E944F1CAFCF80913414882389F4809137
:102C80002F14813009F495C080E00F900FBE882387
:102C900009F461CFCDB7DEB7EBE00C94F11CDAC0DC
:102CA00080913414882359F389E0C82EAA24AA9469
:102CB000BA2C9924939480913314882309F07DC011
:102CC0008091301490913114019690933114809337
:102CD0003014E0903014F0903114E114F10409F54F
:102CE00020916E1430916F14809170149091711432
:102CF00090936F1480936E1430937114209370141A
:102D0000809132148F5F80933214E0916E14F091B1
:102D10006F148081882309F087C0B0922202A092AC
:102D200021028091210290912202E816F90608F40E
:102D30005EC0DD24E0916E14F0916F1480818823D1
:102D400009F46DC0E0916E14F0916F140580F68166
:102D5000E02DC681D7818A819B81E816F90608F4A7
:102D600074C08E010E5F1F4FC8010E94811C8C89A8
:102D70009D89892B21F0CE010C960E94811C9E8991
:102D800080912E14891710F490932E149C9DC001ED
:102D90001124885C9B4EB8010E94301CE0912C14D9
:102DA000F0912D149E898689981720F2DD24D39402
:102DB000C1CF0E94BB1B81E068CF809134148F5F2C
:102DC00080933414DD2480912F14882369F4DD204E
:102DD00059F48091341481508093341480913414C8
:102DE000882309F068CF4BCF90922F14F2CFDD24C7
:102DF000E0912C14F0912D14868990E0FC01EE0FE7
:102E0000FF1FEE0FFF1FEE0FFF1FE80FF91FE85C1B
:102E1000FB4E80818230B8F2DD24D394D4CFB092BF
:102E20002202A0922102E4CFE0916E14F0916F147F
:102E30000580F681E02D0680F781E02D8281938167
:102E400090932202809321026CCF90932202809370
:102E50002102CECFA0E0B0E0E0E3F7E10C94D51C76
:102E6000FC01EB01809133148F5F80933314209128
:102E700030143091311480819181C80FD91F2817E7
:102E8000390708F016C1C817D90708F024C12C1754
:102E90003D0708F020C1D183C08380912C1490910C
:102EA0002D1402960E94811CE0912C14F0912D1497
:102EB000D383C2838091301490913114C817D907FD
:102EC00008F4FCC080916E1490916F1460912C14E2
:102ED00070912D146E5F7F4F0E944F1C80912102D4
:102EE00090912202C817D90720F4D0932202C093F0
:102EF00021020FB6F8940F92809133148150809381
:102F0000331480913314882309F003C18091351460
:102F1000882309F4FEC049E0F42EEE24E394809166
:102F20007214882369F1E0917714F0917814C681C6
:102F3000D781CE010C960E94811C8E010E5F1F4F1F
:102F4000C8010E94811C9E8980912E14891710F45B
:102F500090932E149F9DC0011124885C9B4EB80154
:102F60000E94301CE0912C14F0912D149E898689CA
:102F70009817A8F2E0922F1480917214882399F682
:102F800080913414882309F4BFC0809134148823BD
:102F900009F4BAC039E0C32EAA24AA94BA2C992401
:102FA000939480913314882309F098C08091301451
:102FB0009091311401969093311480933014E090E5
:102FC0003014F0903114E114F10409F520916E14DD
:102FD00030916F14809170149091711490936F14CC
:102FE00080936E1430937114209370148091321476
:102FF0008F5F80933214E0916E14F0916F14808192
:10300000882309F0ADC0B0922202A09221028091E3
:10301000210290912202E816F90608F489C0DD2405
:10302000E0916E14F0916F1480818823E9F1E091B2
:103030006E14F0916F140580F681E02DC681D78162
:103040008A819B81E816F90608F49BC08E010E5F09
:103050001F4FC8010E94811C8C899D89892B21F0FA
:10306000CE010C960E94811C9E8980912E14891796
:1030700010F490932E149C9DC0011124885C9B4EEB
:10308000B8010E94301CE0912C14F0912D149E89FF
:103090008689981728F2DD24D394E0916E14F0917C
:1030A0006F148081882319F6B0922202A092210227
:1030B00040C0C817D90708F4EECEE9CE809170144D
:1030C0009091711460912C1470912D146E5F7F4F4C
:1030D0000E944F1C0ECFD183C0830BCF809134143C
:1030E0008F5F80933414DD2480912F148823E9F4BA
:1030F000DD20D9F480913414815080933414809170
:103100003414882309F04DCF80912F14813009F4B5
:103110003DC080E00F900FBE882311F40E94BB1BBE
:10312000CDB7DEB7EBE00C94F11C90922F14E2CFF8
:10313000DD24E0912C14F0912D14868990E0FC019F
:10314000EE0FFF1FEE0FFF1FEE0FFF1FE80FF91F1F
:10315000E85CFB4E8081823038F2DD24D394C4CF0A
:10316000E0916E14F0916F140580F681E02D0680D9
:10317000F781E02D82819381909322028093210236
:1031800046CF9093220280932102D3CF0E94BB1B93
:1031900081E0C0CFF894109236140E943B1B089532
:1031A000A0E0B0E0E6EDF8E10C94CE1C2C01362E48
:1031B000272E5A013901102F470182E290E00E9428
:1031C000330EEC01009709F4A8C0C114D10409F42E
:1031D00098C0D88ECF8AC60165EA70E0A5010E942A
:1031E0006701EF88F88C832D922D9C01F901DE0197
:1031F00090E0808159968C9359978081882329F09B
:103200009F5F319611969830A1F718A2012F1430C4
:1032100008F075C00E8B09A372E0C72ED12CCC0E1E
:10322000DD1EC6010E942C1CCE010C960E942C1C97
:10323000D987C88784E090E0801B91099D878C879F
:10324000DB8BCA8B0894A108B108C7018A0D9B1DAE
:10325000B201A3010E94A71A998388838114910463
:1032600019F0F401D183C0830FB6F8940F928091C6
:1032700035148F5F8093351480912C1490912D1408
:10328000892B09F451C080913614882359F4E091B8
:103290002C14F0912D148689181720F0D0932D143A
:1032A000C0932C14809137148F5F809337149E89BC
:1032B00080912E14891710F490932E1489E0989F12
:1032C000C0011124885C9B4EB6010E94301C0F90F7
:1032D0000FBE80913614882359F0E0912C14F091A0
:1032E0002D148689811720F40E94BB1B81E001C048
:1032F00081E0CDB7DEB7E2E10C94EA1C4DC003E0FB
:1033000089CFC5010E94330E6C01988F8F8B009777
:1033100009F061CFCE010E94C00D8FEFCDB7DEB7AF
:10332000E2E10C94EA1C38C0D0932D14C0932C1405
:1033300080913514813009F0B5CF88E394E10E9483
:103340001C1C81E494E10E941C1C8AE494E10E940C
:103350001C1C83E594E10E941C1C6CE5E62E64E1D4
:10336000F62EC7010E941C1C55E6A52E54E1B52E71
:10337000C5010E941C1C82E794E10E941C1C8BE783
:1033800094E10E941C1CF0926F14E0926E14B092B3
:103390007114A092701486CFA0E0B0E0E2EDF9E1E4
:1033A0000C94D81C82E290E00E94330EEC0100974E
:1033B00009F48AC085E590E00E94330E988F8F8BC8
:1033C000009709F4BCC065EA70E045E550E00E9452
:1033D00067010F89188DE8E1F2E0DE0180815996DE
:1033E0008C9359978081882331F03196119682E031
:1033F000E032F80799F718A21E8A19A2F2E0CF2E40
:10340000D12CCC0EDD1EC6010E942C1CCE010C96C8
:103410000E942C1CD987C88784E090E09D878C8708
:10342000DB8BCA8BC8018C5A9F4F66E171E040E08C
:1034300050E00E94A71A998388830FB6F8940F92E0
:10344000809135148F5F8093351480912C14909166
:103450002D14892B09F43EC080913614882359F429
:10346000E0912C14F0912D148689882321F4D093B7
:103470002D14C0932C14809137148F5F80933714D0
:103480009E8980912E14891710F490932E1489E050
:10349000989FC0011124885C9B4EB6010E94301C8D
:1034A0000F900FBE80913614882321F080912C1448
:1034B00090912D14F89481E0809336141092311479
:1034C000109230140E94F21ACDB7DEB7E8E00C94E7
:1034D000F41C3DC0D0932D14C0932C14809135144E
:1034E000813049F688E394E10E941C1C81E494E158
:1034F0000E941C1C8AE494E10E941C1C83E594E158
:103500000E941C1CECE5EE2EE4E1FE2EC7010E9499
:103510001C1C05E614E1C8010E941C1C82E794E112
:103520000E941C1C8BE794E10E941C1CF0926F14FB
:10353000E0926E1410937114009370149CCFCE011E
:103540000E94C00DCDB7DEB7E8E00C94F41CFC017E
:1035500091E1908322E2229383E3829362937293B8
:103560001292129280E8829312921292129282E048
:10357000829383E0829384E0829385E0829386E065
:10358000829387E0829388E0829389E0829380E14E
:103590008293929382E1829383E1829384E1829386
:1035A00085E1829386E1829387E1829388E1829329
:1035B00089E1829380E2829381E28293229383E283
:1035C00082934293529386E2829387E2829388E2C7
:1035D000829389E2829380E3829381E3829331979D
:1035E000CF01089584EF91E0909385148093841423
:1035F000909387148093861481E08093990083EFE1
:10360000809398008BE080939100E1E7F0E0808167
:1036100082608083A0912C14B0912D14CD91CDBFE8
:10362000DD91DEBFFF91EF91DF91CF91BF91AF911F
:103630009F918F917F916F915F914F913F912F91CA
:103640001F910F91FF90EF90DF90CF90BF90AF90C0
:103650009F908F907F906F905F904F903F902F90B2
:103660001F900F900CBE0F900BBE0F900FBE0F90CF
:10367000089581E0089508950F920FB6F8940F927F
:103680000BB60F920CB60F921F9211242F923F92FD
:103690004F925F926F927F928F929F92AF92BF9262
:1036A000CF92DF92EF92FF920F931F932F933F934E
:1036B0004F935F936F937F938F939F93AF93BF933A
:1036C000CF93DF93EF93FF93A0912C14B0912D141F
:1036D0000DB60D920EB60D928091861490918714BE
:1036E00001979093871480938614892B09F435C031
:1036F0000E94D910882311F00E94E212A0912C148C
:10370000B0912D14CD91CDBFDD91DEBFFF91EF9132
:10371000DF91CF91BF91AF919F918F917F916F91E9
:103720005F914F913F912F911F910F91FF90EF90DB
:10373000DF90CF90BF90AF909F908F907F906F90D1
:103740005F904F903F902F901F900F900CBE0F9066
:103750000BBE0F900FBE0F9008950E944201809102
:103760008414909185149093871480938614C0CF0D
:103770000E943C1B18950F920FB6F8940F920BB64F
:103780000F920CB60F921F9211242F923F924F92DC
:103790005F926F927F928F929F92AF92BF92CF92E1
:1037A000DF92EF92FF920F931F932F933F934F93CC
:1037B0005F936F937F938F939F93AF93BF93CF93B9
:1037C000DF93EF93FF93A0912C14B0912D140DB6BD
:1037D0000D920EB60D920E94E212A0912C14B0919F
:1037E0002D14CD91CDBFDD91DEBFFF91EF91DF9123
:1037F000CF91BF91AF919F918F917F916F915F9189
:103800004F913F912F911F910F91FF90EF90DF907B
:10381000CF90BF90AF909F908F907F906F905F9070
:103820004F903F902F901F900F900CBE0F900BBEAB
:103830000F900FBE0F900895FC019C012D5F3F4F2C
:10384000328321838FEF9FEF948383833683258395
:103850003087278310820895FC0111861086089511
:10386000AC01FC01A181B281FB01B383A283149658
:103870008D919C911597958384831496ED91FC917D
:1038800015977383628315967C936E931497FB014F
:1038900051874087FA0180818F5F80830895CF939D
:1038A000DF93AC01EB01288139818FEF2F3F38077F
:1038B00001F1DA01139601C0DF011296ED91FC913E
:1038C00013978081918128173907B0F7FB83EA832A
:1038D000D583C483BD83AC831396DC93CE931297B8
:1038E00059874887FA0180818F5F8083DF91CF916C
:1038F0000895FA01A781B0851296ED91FC91139776
:10390000E5CFCF93DF93DC011896CD91DC91199729
:1039100012964D915C91139714968D919C911597E9
:10392000FA019583848314962D913C911597F901A2
:103930005383428389819A818A179B0751F0199694
:103940001C921E921897888181508883DF91CF91B5
:1039500008953A832983F3CFA1E21A2EAA1BBB1B39
:10396000FD010DC0AA1FBB1FEE1FFF1FA217B3074B
:10397000E407F50720F0A21BB30BE40BF50B661F61
:10398000771F881F991F1A9469F760957095809525
:1039900090959B01AC01BD01CF0108952F923F92FC
:1039A0004F925F926F927F928F929F92AF92BF924F
:1039B000CF92DF92EF92FF920F931F93CF93DF93FB
:1039C000CDB7DEB7CA1BDB0B0FB6F894DEBF0FBE58
:1039D000CDBF19942A88398848885F846E847D8495
:1039E0008C849B84AA84B984C884DF80EE80FD80A7
:1039F0000C811B81AA81B981CE0FD11D0FB6F8941D
:0E3A0000DEBF0FBECDBFED010895F894FFCFDD
:103A0E005265644C454400477265656E4C454400F2
:103A1E00426C75654C45440049444C4500FF11FF0E
:043A2E0011FFFF0085
:00000001FF
